{
  "contractName": "FraudLogger",
  "abi": [
    {
      "anonymous": false,
      "inputs": [
        {
          "indexed": false,
          "internalType": "string",
          "name": "transactionHash",
          "type": "string"
        },
        {
          "indexed": false,
          "internalType": "uint256",
          "name": "amount",
          "type": "uint256"
        },
        {
          "indexed": false,
          "internalType": "string",
          "name": "method",
          "type": "string"
        },
        {
          "indexed": false,
          "internalType": "string",
          "name": "result",
          "type": "string"
        }
      ],
      "name": "LogStored",
      "type": "event"
    },
    {
      "inputs": [
        {
          "internalType": "uint256",
          "name": "",
          "type": "uint256"
        }
      ],
      "name": "logs",
      "outputs": [
        {
          "internalType": "string",
          "name": "transactionHash",
          "type": "string"
        },
        {
          "internalType": "uint256",
          "name": "amount",
          "type": "uint256"
        },
        {
          "internalType": "string",
          "name": "method",
          "type": "string"
        },
        {
          "internalType": "string",
          "name": "result",
          "type": "string"
        }
      ],
      "stateMutability": "view",
      "type": "function",
      "constant": true
    },
    {
      "inputs": [
        {
          "internalType": "string",
          "name": "transactionHash",
          "type": "string"
        },
        {
          "internalType": "uint256",
          "name": "amount",
          "type": "uint256"
        },
        {
          "internalType": "string",
          "name": "method",
          "type": "string"
        },
        {
          "internalType": "string",
          "name": "result",
          "type": "string"
        }
      ],
      "name": "storeLog",
      "outputs": [],
      "stateMutability": "nonpayable",
      "type": "function"
    },
    {
      "inputs": [
        {
          "internalType": "uint256",
          "name": "index",
          "type": "uint256"
        }
      ],
      "name": "getLog",
      "outputs": [
        {
          "internalType": "string",
          "name": "",
          "type": "string"
        },
        {
          "internalType": "uint256",
          "name": "",
          "type": "uint256"
        },
        {
          "internalType": "string",
          "name": "",
          "type": "string"
        },
        {
          "internalType": "string",
          "name": "",
          "type": "string"
        }
      ],
      "stateMutability": "view",
      "type": "function",
      "constant": true
    },
    {
      "inputs": [],
      "name": "getTotalLogs",
      "outputs": [
        {
          "internalType": "uint256",
          "name": "",
          "type": "uint256"
        }
      ],
      "stateMutability": "view",
      "type": "function",
      "constant": true
    }
  ],
  "bytecode": "0x608060405234801561001057600080fd5b50610b17806100206000396000f3fe608060405234801561001057600080fd5b506004361061004c5760003560e01c80633206b2c614610051578063ae85e87314610084578063bd628d26146100a0578063e79899bd146100be575b600080fd5b61006b6004803603810190610066919061081a565b6100f1565b60405161007b94939291906108cb565b60405180910390f35b61009e6004803603810190610099919061076f565b610379565b005b6100a861046b565b6040516100b59190610945565b60405180910390f35b6100d860048036038101906100d3919061081a565b610477565b6040516100e894939291906108cb565b60405180910390f35b60606000606080600080549050851061013f576040517f08c379a000000000000000000000000000000000000000000000000000000000815260040161013690610925565b60405180910390fd5b600080868154811061017a577f4e487b7100000000000000000000000000000000000000000000000000000000600052603260045260246000fd5b90600052602060002090600402016040518060800160405290816000820180546101a390610a29565b80601f01602080910402602001604051908101604052809291908181526020018280546101cf90610a29565b801561021c5780601f106101f15761010080835404028352916020019161021c565b820191906000526020600020905b8154815290600101906020018083116101ff57829003601f168201915b505050505081526020016001820154815260200160028201805461023f90610a29565b80601f016020809104026020016040519081016040528092919081815260200182805461026b90610a29565b80156102b85780601f1061028d576101008083540402835291602001916102b8565b820191906000526020600020905b81548152906001019060200180831161029b57829003601f168201915b505050505081526020016003820180546102d190610a29565b80601f01602080910402602001604051908101604052809291908181526020018280546102fd90610a29565b801561034a5780601f1061031f5761010080835404028352916020019161034a565b820191906000526020600020905b81548152906001019060200180831161032d57829003601f168201915b505050505081525050905080600001518160200151826040015183606001519450945094509450509193509193565b6000604051806080016040528086815260200185815260200184815260200183815250908060018154018082558091505060019003906000526020600020906004020160009091909190915060008201518160000190805190602001906103e192919061064f565b5060208201518160010155604082015181600201908051906020019061040892919061064f565b50606082015181600301908051906020019061042592919061064f565b5050507f2989258a1fee484c92d35aaf6a590a3bacad55c11b90ba31aad04574321fc5f78484848460405161045d94939291906108cb565b60405180910390a150505050565b60008080549050905090565b6000818154811061048757600080fd5b90600052602060002090600402016000915090508060000180546104aa90610a29565b80601f01602080910402602001604051908101604052809291908181526020018280546104d690610a29565b80156105235780601f106104f857610100808354040283529160200191610523565b820191906000526020600020905b81548152906001019060200180831161050657829003601f168201915b50505050509080600101549080600201805461053e90610a29565b80601f016020809104026020016040519081016040528092919081815260200182805461056a90610a29565b80156105b75780601f1061058c576101008083540402835291602001916105b7565b820191906000526020600020905b81548152906001019060200180831161059a57829003601f168201915b5050505050908060030180546105cc90610a29565b80601f01602080910402602001604051908101604052809291908181526020018280546105f890610a29565b80156106455780601f1061061a57610100808354040283529160200191610645565b820191906000526020600020905b81548152906001019060200180831161062857829003601f168201915b5050505050905084565b82805461065b90610a29565b90600052602060002090601f01602090048101928261067d57600085556106c4565b82601f1061069657805160ff19168380011785556106c4565b828001600101855582156106c4579182015b828111156106c35782518255916020019190600101906106a8565b5b5090506106d191906106d5565b5090565b5b808211156106ee5760008160009055506001016106d6565b5090565b600061070561070084610991565b610960565b90508281526020810184848401111561071d57600080fd5b6107288482856109e7565b509392505050565b600082601f83011261074157600080fd5b81356107518482602086016106f2565b91505092915050565b60008135905061076981610aca565b92915050565b6000806000806080858703121561078557600080fd5b600085013567ffffffffffffffff81111561079f57600080fd5b6107ab87828801610730565b94505060206107bc8782880161075a565b935050604085013567ffffffffffffffff8111156107d957600080fd5b6107e587828801610730565b925050606085013567ffffffffffffffff81111561080257600080fd5b61080e87828801610730565b91505092959194509250565b60006020828403121561082c57600080fd5b600061083a8482850161075a565b91505092915050565b600061084e826109c1565b61085881856109cc565b93506108688185602086016109f6565b61087181610ab9565b840191505092915050565b60006108896013836109cc565b91507f496e646578206f7574206f6620626f756e6473000000000000000000000000006000830152602082019050919050565b6108c5816109dd565b82525050565b600060808201905081810360008301526108e58187610843565b90506108f460208301866108bc565b81810360408301526109068185610843565b9050818103606083015261091a8184610843565b905095945050505050565b6000602082019050818103600083015261093e8161087c565b9050919050565b600060208201905061095a60008301846108bc565b92915050565b6000604051905081810181811067ffffffffffffffff8211171561098757610986610a8a565b5b8060405250919050565b600067ffffffffffffffff8211156109ac576109ab610a8a565b5b601f19601f8301169050602081019050919050565b600081519050919050565b600082825260208201905092915050565b6000819050919050565b82818337600083830152505050565b60005b83811015610a145780820151818401526020810190506109f9565b83811115610a23576000848401525b50505050565b60006002820490506001821680610a4157607f821691505b60208210811415610a5557610a54610a5b565b5b50919050565b7f4e487b7100000000000000000000000000000000000000000000000000000000600052602260045260246000fd5b7f4e487b7100000000000000000000000000000000000000000000000000000000600052604160045260246000fd5b6000601f19601f8301169050919050565b610ad3816109dd565b8114610ade57600080fd5b5056fea26469706673582212203c2a4147a46dae20e6f9f6cb071dc44b68d9de0246224b87e038373292adc1d264736f6c63430008000033",
  "immutableReferences": {},
  "source": "// SPDX-License-Identifier: MIT \r\n// contracts/FraudLogger.sol\r\npragma solidity ^0.8.0;\r\n\r\ncontract FraudLogger {\r\n    event LogStored(string transactionHash, uint256 amount, string method, string result);\r\n\r\n    struct Log {\r\n        string transactionHash;\r\n        uint256 amount;\r\n        string method;\r\n        string result;\r\n    }\r\n\r\n    Log[] public logs;\r\n\r\n    function storeLog(string memory transactionHash, uint256 amount, string memory method, string memory result) public {\r\n        logs.push(Log(transactionHash, amount, method, result));\r\n        emit LogStored(transactionHash, amount, method, result);\r\n    }\r\n\r\n    function getLog(uint index) public view returns (string memory, uint256, string memory, string memory) {\r\n        require(index < logs.length, \"Index out of bounds\");\r\n        Log memory log = logs[index];\r\n        return (log.transactionHash, log.amount, log.method, log.result);\r\n    }\r\n\r\n    function getTotalLogs() public view returns (uint) {\r\n        return logs.length;\r\n    }\r\n}\r\n",
  "sourcePath": "C:\\Users\\Saksham\\OneDrive\\Desktop\\AIML Lab\\Mini Project\\contracts\\transactions.sol",
  "compiler": {
    "name": "solc",
    "version": "0.8.0+commit.c7dfd78e.Emscripten.clang"
  },
  "schemaVersion": "3.4.16",
  "updatedAt": "2025-04-06T11:12:37.766Z",
  "networkType": "ethereum",
  "devdoc": {
    "kind": "dev",
    "methods": {},
    "version": 1
  },
  "userdoc": {
    "kind": "user",
    "methods": {},
    "version": 1
  }
}